{
  "abi": [
    {
      "type": "constructor",
      "inputs": [
        {
          "name": "_feeAddress",
          "type": "address",
          "internalType": "address"
        },
        {
          "name": "_usdc",
          "type": "address",
          "internalType": "address"
        }
      ],
      "stateMutability": "nonpayable"
    },
    {
      "type": "function",
      "name": "createEvent",
      "inputs": [
        {
          "name": "_description",
          "type": "string",
          "internalType": "string"
        },
        {
          "name": "_imageUrl",
          "type": "string",
          "internalType": "string"
        },
        {
          "name": "_deadline",
          "type": "uint256",
          "internalType": "uint256"
        }
      ],
      "outputs": [],
      "stateMutability": "nonpayable"
    },
    {
      "type": "function",
      "name": "createdEvents",
      "inputs": [
        {
          "name": "",
          "type": "uint256",
          "internalType": "uint256"
        }
      ],
      "outputs": [
        {
          "name": "",
          "type": "address",
          "internalType": "address"
        }
      ],
      "stateMutability": "view"
    },
    {
      "type": "function",
      "name": "feeAddress",
      "inputs": [],
      "outputs": [
        {
          "name": "",
          "type": "address",
          "internalType": "address"
        }
      ],
      "stateMutability": "view"
    },
    {
      "type": "function",
      "name": "getDeployedEvents",
      "inputs": [],
      "outputs": [
        {
          "name": "",
          "type": "address[]",
          "internalType": "address[]"
        }
      ],
      "stateMutability": "view"
    },
    {
      "type": "function",
      "name": "owner",
      "inputs": [],
      "outputs": [
        {
          "name": "",
          "type": "address",
          "internalType": "address"
        }
      ],
      "stateMutability": "view"
    },
    {
      "type": "function",
      "name": "updateFeeAddress",
      "inputs": [
        {
          "name": "protcolFeeAddress",
          "type": "address",
          "internalType": "address"
        }
      ],
      "outputs": [],
      "stateMutability": "nonpayable"
    },
    {
      "type": "function",
      "name": "usdc",
      "inputs": [],
      "outputs": [
        {
          "name": "",
          "type": "address",
          "internalType": "address"
        }
      ],
      "stateMutability": "view"
    },
    {
      "type": "event",
      "name": "EventCreated",
      "inputs": [
        {
          "name": "eventAddress",
          "type": "address",
          "indexed": true,
          "internalType": "address"
        },
        {
          "name": "description",
          "type": "string",
          "indexed": false,
          "internalType": "string"
        },
        {
          "name": "deadline",
          "type": "uint256",
          "indexed": false,
          "internalType": "uint256"
        }
      ],
      "anonymous": false
    }
  ],
  "bytecode": {
    "object": "0x60a060405234801561000f575f5ffd5b50604051611be1380380611be183398101604081905261002e9161007b565b5f8054336001600160a01b031991821617909155600180549091166001600160a01b03938416179055166080526100ac565b80516001600160a01b0381168114610076575f5ffd5b919050565b5f5f6040838503121561008c575f5ffd5b61009583610060565b91506100a360208401610060565b90509250929050565b608051611b176100ca5f395f818160a101526102190152611b175ff3fe608060405234801561000f575f5ffd5b506004361061007a575f3560e01c8063412753581161005857806341275358146100ee5780635555fe17146101015780638da5cb5b14610116578063bbcaac3814610128575f5ffd5b80633812783e1461007e5780633e413bee1461009c5780633fb2ead3146100db575b5f5ffd5b61008661013b565b60405161009391906103d3565b60405180910390f35b6100c37f000000000000000000000000000000000000000000000000000000000000000081565b6040516001600160a01b039091168152602001610093565b6100c36100e936600461041e565b61019b565b6001546100c3906001600160a01b031681565b61011461010f3660046104d4565b6101c3565b005b5f546100c3906001600160a01b031681565b610114610136366004610542565b610313565b6060600280548060200260200160405190810160405280929190818152602001828054801561019157602002820191905f5260205f20905b81546001600160a01b03168152600190910190602001808311610173575b5050505050905090565b600281815481106101aa575f80fd5b5f918252602090912001546001600160a01b0316905081565b5f546001600160a01b031633146102125760405162461bcd60e51b815260206004820152600e60248201526d139bdd08185d5d1a1bdc9a5e995960921b60448201526064015b60405180910390fd5b5f838383337f000000000000000000000000000000000000000000000000000000000000000060015f9054906101000a90046001600160a01b0316604051610259906103c6565b6102689695949392919061059d565b604051809103905ff080158015610281573d5f5f3e3d5ffd5b50600280546001810182555f919091527f405787fa12a823e0f2b7631cc41b3ba8828b3321ca811111fa75cd3aa3bb5ace0180546001600160a01b0319166001600160a01b038316908117909155604051919250907f84fca91db96bf2ac4269fb42dda353d5a1c4d6dc385dc06d8478e935211637319061030590879086906105f2565b60405180910390a250505050565b5f546001600160a01b0316331461035d5760405162461bcd60e51b815260206004820152600e60248201526d139bdd08185d5d1a1bdc9a5e995960921b6044820152606401610209565b6001546001600160a01b03166103a45760405162461bcd60e51b815260206004820152600c60248201526b5a65726f206164647265737360a01b6044820152606401610209565b600180546001600160a01b0319166001600160a01b0392909216919091179055565b6114ce8061061483390190565b602080825282518282018190525f918401906040840190835b818110156104135783516001600160a01b03168352602093840193909201916001016103ec565b509095945050505050565b5f6020828403121561042e575f5ffd5b5035919050565b634e487b7160e01b5f52604160045260245ffd5b5f82601f830112610458575f5ffd5b813567ffffffffffffffff81111561047257610472610435565b604051601f8201601f19908116603f0116810167ffffffffffffffff811182821017156104a1576104a1610435565b6040528181528382016020018510156104b8575f5ffd5b816020850160208301375f918101602001919091529392505050565b5f5f5f606084860312156104e6575f5ffd5b833567ffffffffffffffff8111156104fc575f5ffd5b61050886828701610449565b935050602084013567ffffffffffffffff811115610524575f5ffd5b61053086828701610449565b93969395505050506040919091013590565b5f60208284031215610552575f5ffd5b81356001600160a01b0381168114610568575f5ffd5b9392505050565b5f81518084528060208401602086015e5f602082860101526020601f19601f83011685010191505092915050565b60c081525f6105af60c083018961056f565b82810360208401526105c1818961056f565b604084019790975250506001600160a01b039384166060820152918316608083015290911660a09091015292915050565b604081525f610604604083018561056f565b9050826020830152939250505056fe610100604052348015610010575f5ffd5b506040516114ce3803806114ce83398101604081905261002f9161012f565b6001600160a01b03808416608052811660a0525f61004d8782610250565b50600161005a8682610250565b505060c092909252506001600160a01b031660e0525061030a9050565b634e487b7160e01b5f52604160045260245ffd5b5f82601f83011261009a575f5ffd5b81516001600160401b038111156100b3576100b3610077565b604051601f8201601f19908116603f011681016001600160401b03811182821017156100e1576100e1610077565b6040528181528382016020018510156100f8575f5ffd5b8160208501602083015e5f918101602001919091529392505050565b80516001600160a01b038116811461012a575f5ffd5b919050565b5f5f5f5f5f5f60c08789031215610144575f5ffd5b86516001600160401b03811115610159575f5ffd5b61016589828a0161008b565b602089015190975090506001600160401b03811115610182575f5ffd5b61018e89828a0161008b565b955050604087015193506101a460608801610114565b92506101b260808801610114565b91506101c060a08801610114565b90509295509295509295565b600181811c908216806101e057607f821691505b6020821081036101fe57634e487b7160e01b5f52602260045260245ffd5b50919050565b601f82111561024b57805f5260205f20601f840160051c810160208510156102295750805b601f840160051c820191505b81811015610248575f8155600101610235565b50505b505050565b81516001600160401b0381111561026957610269610077565b61027d8161027784546101cc565b84610204565b6020601f8211600181146102af575f83156102985750848201515b5f19600385901b1c1916600184901b178455610248565b5f84815260208120601f198516915b828110156102de57878501518255602094850194600190920191016102be565b50848210156102fb57868401515f19600387901b60f8161c191681555b50505050600190811b01905550565b60805160a05160c05160e05161112f61039f5f395f81816101a301528181610509015281816105ba0152818161088c01528181610cee0152610dc801525f818161012a015281816102c9015281816106f601528181610785015281816109a901528181610a940152610b7801525f8181610164015261058b01525f818161024b015281816109490152610be0015261112f5ff3fe608060405234801561000f575f5ffd5b5060043610610106575f3560e01c80637284e4161161009e5780639fde4ef81161006e5780639fde4ef81461026d578063aba831501461027f578063bbefcca814610287578063e2bb3ccf1461029a578063f7f74b22146102b4575f5ffd5b80637284e416146101eb5780637c3064f11461020057806389a78f1a146102085780638da5cb5b14610246575f5ffd5b806339a51be5116100d957806339a51be51461015f5780633e413bee1461019e5780633f6fa655146101c5578063566aa60b146101e2575f5ffd5b80632982de0d1461010a57806329dcb0cf146101255780632a5968991461014c578063372500ab14610155575b5f5ffd5b610112600581565b6040519081526020015b60405180910390f35b6101127f000000000000000000000000000000000000000000000000000000000000000081565b61011260035481565b61015d6102c7565b005b6101867f000000000000000000000000000000000000000000000000000000000000000081565b6040516001600160a01b03909116815260200161011c565b6101867f000000000000000000000000000000000000000000000000000000000000000081565b6002546101d29060ff1681565b604051901515815260200161011c565b61011260045481565b6101f3610669565b60405161011c9190610f1a565b61015d6106f4565b610231610216366004610f33565b60056020525f90815260409020805460019091015460ff1682565b6040805192835290151560208301520161011c565b6101867f000000000000000000000000000000000000000000000000000000000000000081565b6002546101d290610100900460ff1681565b6101f3610931565b61015d610295366004610f69565b61093e565b6102a2610a8a565b60405161011c96959493929190610f84565b61015d6102c2366004610fbf565b610b76565b7f00000000000000000000000000000000000000000000000000000000000000004210156103105760405162461bcd60e51b815260040161030790610fe9565b60405180910390fd5b60025460ff166103625760405162461bcd60e51b815260206004820152601960248201527f4576656e74206973206e6f74207265736f6c76656420796574000000000000006044820152606401610307565b335f90815260056020526040902080546103ad5760405162461bcd60e51b815260206004820152600c60248201526b139bc81d985b1a590818995d60a21b6044820152606401610307565b600181015460025460ff918216918215156101009092041615151461042b5760405162461bcd60e51b815260206004820152602e60248201527f496e636f72726563742070726564696374696f6e2e2e426574746572204c756360448201526d6b204e6578742054696d652e2e2160901b6064820152608401610307565b6002545f90610100900460ff1661044457600454610448565b6003545b6002549091505f90610100900460ff1661046457600354610468565b6004545b90505f82610476838261102d565b86546104829190611046565b61048c919061105d565b90505f60646005875f0154846104a2919061107c565b6104ac9190611046565b6104b6919061105d565b90505f6104c3828461107c565b335f818152600560205260408082209182556001909101805460ff191690555163a9059cbb60e01b81526004810191909152602481018290529091506001600160a01b037f0000000000000000000000000000000000000000000000000000000000000000169063a9059cbb906044016020604051808303815f875af115801561054f573d5f5f3e3d5ffd5b505050506040513d601f19601f82011682018060405250810190610573919061108f565b5060405163a9059cbb60e01b81526001600160a01b037f000000000000000000000000000000000000000000000000000000000000000081166004830152602482018490527f0000000000000000000000000000000000000000000000000000000000000000169063a9059cbb906044016020604051808303815f875af1158015610600573d5f5f3e3d5ffd5b505050506040513d601f19601f82011682018060405250810190610624919061108f565b50604080518281526020810184905233917fdacbdde355ba930696a362ea6738feb9f8bd52dfb3d81947558fd3217e23e325910160405180910390a250505050505050565b5f8054610675906110aa565b80601f01602080910402602001604051908101604052809291908181526020018280546106a1906110aa565b80156106ec5780601f106106c3576101008083540402835291602001916106ec565b820191905f5260205f20905b8154815290600101906020018083116106cf57829003601f168201915b505050505081565b7f00000000000000000000000000000000000000000000000000000000000000004210156107345760405162461bcd60e51b815260040161030790610fe9565b60025460ff16156107805760405162461bcd60e51b8152602060048201526016602482015275115d995b9d08185b1c9958591e481c995cdbdb1d995960521b6044820152606401610307565b6107ad7f00000000000000000000000000000000000000000000000000000000000000006206978061102d565b4210156107fc5760405162461bcd60e51b815260206004820152601960248201527f526566756e6420706572696f64206e6f742073746172746564000000000000006044820152606401610307565b335f90815260056020526040902080546108475760405162461bcd60e51b815260206004820152600c60248201526b139bc81d985b1a590818995d60a21b6044820152606401610307565b8054335f818152600560205260408082209182556001909101805460ff191690555163a9059cbb60e01b81526004810191909152602481018290526001600160a01b037f0000000000000000000000000000000000000000000000000000000000000000169063a9059cbb906044016020604051808303815f875af11580156108d2573d5f5f3e3d5ffd5b505050506040513d601f19601f820116820180604052508101906108f6919061108f565b5060405181815233907ff247ed1040aa5b17569282cc01923fbdd01401fa63e12930d59be4a5e87aa7d6906020015b60405180910390a25050565b60018054610675906110aa565b336001600160a01b037f000000000000000000000000000000000000000000000000000000000000000016146109a75760405162461bcd60e51b815260206004820152600e60248201526d139bdd08185d5d1a1bdc9a5e995960921b6044820152606401610307565b7f00000000000000000000000000000000000000000000000000000000000000004210156109e75760405162461bcd60e51b815260040161030790610fe9565b60025460ff1615610a335760405162461bcd60e51b8152602060048201526016602482015275115d995b9d08185b1c9958591e481c995cdbdb1d995960521b6044820152606401610307565b600280548215156101000261ffff199091161760011790556040517ff9aba931bd9cd9bc5db0ae6a8d060c3dae36f534995370358dd531cb87497ee590610a7f90831515815260200190565b60405180910390a150565b60605f5f5f5f5f5f7f000000000000000000000000000000000000000000000000000000000000000060025f9054906101000a900460ff16600260019054906101000a900460ff16600354600454858054610ae4906110aa565b80601f0160208091040260200160405190810160405280929190818152602001828054610b10906110aa565b8015610b5b5780601f10610b3257610100808354040283529160200191610b5b565b820191905f5260205f20905b815481529060010190602001808311610b3e57829003601f168201915b50505050509550955095509550955095509550909192939495565b7f00000000000000000000000000000000000000000000000000000000000000004210610bd65760405162461bcd60e51b815260206004820152600e60248201526d10995d1d1a5b99c818db1bdcd95960921b6044820152606401610307565b6001600160a01b037f0000000000000000000000000000000000000000000000000000000000000000163303610c435760405162461bcd60e51b81526020600482015260126024820152714f776e65722063616e6e6f74207374616b6560701b6044820152606401610307565b335f9081526005602052604090205415610c945760405162461bcd60e51b815260206004820152601260248201527110995d08185b1c9958591e481c1b1858d95960721b6044820152606401610307565b5f8111610cd15760405162461bcd60e51b815260206004820152600b60248201526a16995c9bc8185b5bdd5b9d60aa1b6044820152606401610307565b604051636eb1769f60e11b815233600482015230602482015281907f00000000000000000000000000000000000000000000000000000000000000006001600160a01b03169063dd62ed3e90604401602060405180830381865afa158015610d3b573d5f5f3e3d5ffd5b505050506040513d601f19601f82011682018060405250810190610d5f91906110e2565b1015610da65760405162461bcd60e51b81526020600482015260166024820152755553444320616c6c6f77616e636520746f6f206c6f7760501b6044820152606401610307565b6040516323b872dd60e01b8152336004820152306024820152604481018290527f00000000000000000000000000000000000000000000000000000000000000006001600160a01b0316906323b872dd906064016020604051808303815f875af1158015610e16573d5f5f3e3d5ffd5b505050506040513d601f19601f82011682018060405250810190610e3a919061108f565b50604080518082018252828152831580156020808401918252335f9081526005909152939093209151825591516001909101805460ff1916911515919091179055610e9b578060035f828254610e90919061102d565b90915550610eb29050565b8060045f828254610eac919061102d565b90915550505b6040805183151581526020810183905233917fe57fa5a543ebcdebf2a7d7102ac913e14454cec006468e43a6916e95bdfcea9e9101610925565b5f81518084528060208401602086015e5f602082860101526020601f19601f83011685010191505092915050565b602081525f610f2c6020830184610eec565b9392505050565b5f60208284031215610f43575f5ffd5b81356001600160a01b0381168114610f2c575f5ffd5b8015158114610f66575f5ffd5b50565b5f60208284031215610f79575f5ffd5b8135610f2c81610f59565b60c081525f610f9660c0830189610eec565b60208301979097525093151560408501529115156060840152608083015260a090910152919050565b5f5f60408385031215610fd0575f5ffd5b8235610fdb81610f59565b946020939093013593505050565b602080825260169082015275115d995b9d081b9bdd081e595d081c995cdbdb1d995960521b604082015260600190565b634e487b7160e01b5f52601160045260245ffd5b8082018082111561104057611040611019565b92915050565b808202811582820484141761104057611040611019565b5f8261107757634e487b7160e01b5f52601260045260245ffd5b500490565b8181038181111561104057611040611019565b5f6020828403121561109f575f5ffd5b8151610f2c81610f59565b600181811c908216806110be57607f821691505b6020821081036110dc57634e487b7160e01b5f52602260045260245ffd5b50919050565b5f602082840312156110f2575f5ffd5b505191905056fea26469706673582212200f32cd2cfd8a2efdf7a2888916606e7a50ce91975f3e676a9906ce9d12f0ef6964736f6c634300081c0033a26469706673582212209c8f5b0ddaa3eb604a14563c47bc15d7a33d40d13ac69e9e270edb668dbc022c64736f6c634300081c0033",
    "linkReferences": {}
  },
  "methodIdentifiers": {
    "createEvent(string,string,uint256)": "5555fe17",
    "createdEvents(uint256)": "3fb2ead3",
    "feeAddress()": "41275358",
    "getDeployedEvents()": "3812783e",
    "owner()": "8da5cb5b",
    "updateFeeAddress(address)": "bbcaac38",
    "usdc()": "3e413bee"
  },
  "id": 22
}