{"abi":[{"type":"constructor","inputs":[{"name":"_feeAddress","type":"address","internalType":"address"},{"name":"_usdc","type":"address","internalType":"address"}],"stateMutability":"nonpayable"},{"type":"function","name":"createEvent","inputs":[{"name":"_description","type":"string","internalType":"string"},{"name":"_deadline","type":"uint256","internalType":"uint256"}],"outputs":[],"stateMutability":"nonpayable"},{"type":"function","name":"createdEvents","inputs":[{"name":"","type":"uint256","internalType":"uint256"}],"outputs":[{"name":"","type":"address","internalType":"address"}],"stateMutability":"view"},{"type":"function","name":"feeAddress","inputs":[],"outputs":[{"name":"","type":"address","internalType":"address"}],"stateMutability":"view"},{"type":"function","name":"getDeployedEvents","inputs":[],"outputs":[{"name":"","type":"address[]","internalType":"address[]"}],"stateMutability":"view"},{"type":"function","name":"owner","inputs":[],"outputs":[{"name":"","type":"address","internalType":"address"}],"stateMutability":"view"},{"type":"function","name":"updateFeeAddress","inputs":[{"name":"protcolFeeAddress","type":"address","internalType":"address"}],"outputs":[],"stateMutability":"nonpayable"},{"type":"function","name":"usdc","inputs":[],"outputs":[{"name":"","type":"address","internalType":"address"}],"stateMutability":"view"},{"type":"event","name":"EventCreated","inputs":[{"name":"eventAddress","type":"address","indexed":true,"internalType":"address"},{"name":"description","type":"string","indexed":false,"internalType":"string"},{"name":"deadline","type":"uint256","indexed":false,"internalType":"uint256"}],"anonymous":false}],"bytecode":{"object":"0x60a060405234801561000f575f5ffd5b50604051611b19380380611b1983398101604081905261002e9161007b565b5f8054336001600160a01b031991821617909155600180549091166001600160a01b03938416179055166080526100ac565b80516001600160a01b0381168114610076575f5ffd5b919050565b5f5f6040838503121561008c575f5ffd5b61009583610060565b91506100a360208401610060565b90509250929050565b608051611a4f6100ca5f395f818160a101526102220152611a4f5ff3fe608060405234801561000f575f5ffd5b506004361061007a575f3560e01c8063412753581161005857806341275358146100ee5780638da5cb5b146101015780639a4d438514610113578063bbcaac3814610128575f5ffd5b80633812783e1461007e5780633e413bee1461009c5780633fb2ead3146100db575b5f5ffd5b61008661013b565b60405161009391906103cd565b60405180910390f35b6100c37f000000000000000000000000000000000000000000000000000000000000000081565b6040516001600160a01b039091168152602001610093565b6100c36100e9366004610418565b61019b565b6001546100c3906001600160a01b031681565b5f546100c3906001600160a01b031681565b610126610121366004610443565b6101c3565b005b6101266101363660046104f8565b61030d565b6060600280548060200260200160405190810160405280929190818152602001828054801561019157602002820191905f5260205f20905b81546001600160a01b03168152600190910190602001808311610173575b5050505050905090565b600281815481106101aa575f80fd5b5f918252602090912001546001600160a01b0316905081565b5f546001600160a01b031633146102125760405162461bcd60e51b815260206004820152600e60248201526d139bdd08185d5d1a1bdc9a5e995960921b60448201526064015b60405180910390fd5b6001546040515f918491849133917f0000000000000000000000000000000000000000000000000000000000000000916001600160a01b031690610255906103c0565b610263959493929190610553565b604051809103905ff08015801561027c573d5f5f3e3d5ffd5b50600280546001810182555f919091527f405787fa12a823e0f2b7631cc41b3ba8828b3321ca811111fa75cd3aa3bb5ace0180546001600160a01b0319166001600160a01b038316908117909155604051919250907f84fca91db96bf2ac4269fb42dda353d5a1c4d6dc385dc06d8478e93521163731906103009086908690610594565b60405180910390a2505050565b5f546001600160a01b031633146103575760405162461bcd60e51b815260206004820152600e60248201526d139bdd08185d5d1a1bdc9a5e995960921b6044820152606401610209565b6001546001600160a01b031661039e5760405162461bcd60e51b815260206004820152600c60248201526b5a65726f206164647265737360a01b6044820152606401610209565b600180546001600160a01b0319166001600160a01b0392909216919091179055565b611464806105b683390190565b602080825282518282018190525f918401906040840190835b8181101561040d5783516001600160a01b03168352602093840193909201916001016103e6565b509095945050505050565b5f60208284031215610428575f5ffd5b5035919050565b634e487b7160e01b5f52604160045260245ffd5b5f5f60408385031215610454575f5ffd5b823567ffffffffffffffff81111561046a575f5ffd5b8301601f8101851361047a575f5ffd5b803567ffffffffffffffff8111156104945761049461042f565b604051601f8201601f19908116603f0116810167ffffffffffffffff811182821017156104c3576104c361042f565b6040528181528282016020018710156104da575f5ffd5b816020840160208301375f6020928201830152969401359450505050565b5f60208284031215610508575f5ffd5b81356001600160a01b038116811461051e575f5ffd5b9392505050565b5f81518084528060208401602086015e5f602082860101526020601f19601f83011685010191505092915050565b60a081525f61056560a0830188610525565b6020830196909652506001600160a01b0393841660408201529183166060830152909116608090910152919050565b604081525f6105a66040830185610525565b9050826020830152939250505056fe610100604052348015610010575f5ffd5b5060405161146438038061146483398101604081905261002f91610097565b6001600160a01b03808416608052811660a0525f61004d8682610204565b505060c092909252506001600160a01b031660e052506102be565b634e487b7160e01b5f52604160045260245ffd5b80516001600160a01b0381168114610092575f5ffd5b919050565b5f5f5f5f5f60a086880312156100ab575f5ffd5b85516001600160401b038111156100c0575f5ffd5b8601601f810188136100d0575f5ffd5b80516001600160401b038111156100e9576100e9610068565b604051601f8201601f19908116603f011681016001600160401b038111828210171561011757610117610068565b6040528181528282016020018a101561012e575f5ffd5b8160208401602083015e5f602092820183015290880151909650945061015890506040870161007c565b92506101666060870161007c565b91506101746080870161007c565b90509295509295909350565b600181811c9082168061019457607f821691505b6020821081036101b257634e487b7160e01b5f52602260045260245ffd5b50919050565b601f8211156101ff57805f5260205f20601f840160051c810160208510156101dd5750805b601f840160051c820191505b818110156101fc575f81556001016101e9565b50505b505050565b81516001600160401b0381111561021d5761021d610068565b6102318161022b8454610180565b846101b8565b6020601f821160018114610263575f831561024c5750848201515b5f19600385901b1c1916600184901b1784556101fc565b5f84815260208120601f198516915b828110156102925787850151825560209485019460019092019101610272565b50848210156102af57868401515f19600387901b60f8161c191681555b50505050600190811b01905550565b60805160a05160c05160e0516111116103535f395f8181610198015281816104f9015281816105aa0152818161087e01528181610cd00152610daa01525f818161011f015281816102b6015281816106e6015281816107750152818161098e01528181610a780152610b5a01525f8181610159015261057b01525f81816102400152818161092e0152610bc201526111115ff3fe608060405234801561000f575f5ffd5b50600436106100fb575f3560e01c80637284e416116100935780639fde4ef8116100635780639fde4ef814610262578063bbefcca814610274578063e2bb3ccf14610287578063f7f74b22146102a1575f5ffd5b80637284e416146101e05780637c3064f1146101f557806389a78f1a146101fd5780638da5cb5b1461023b575f5ffd5b806339a51be5116100ce57806339a51be5146101545780633e413bee146101935780633f6fa655146101ba578063566aa60b146101d7575f5ffd5b80632982de0d146100ff57806329dcb0cf1461011a5780632a59689914610141578063372500ab1461014a575b5f5ffd5b610107600581565b6040519081526020015b60405180910390f35b6101077f000000000000000000000000000000000000000000000000000000000000000081565b61010760025481565b6101526102b4565b005b61017b7f000000000000000000000000000000000000000000000000000000000000000081565b6040516001600160a01b039091168152602001610111565b61017b7f000000000000000000000000000000000000000000000000000000000000000081565b6001546101c79060ff1681565b6040519015158152602001610111565b61010760035481565b6101e8610659565b6040516101119190610efc565b6101526106e4565b61022661020b366004610f15565b60046020525f90815260409020805460019091015460ff1682565b60408051928352901515602083015201610111565b61017b7f000000000000000000000000000000000000000000000000000000000000000081565b6001546101c790610100900460ff1681565b610152610282366004610f4b565b610923565b61028f610a6e565b60405161011196959493929190610f66565b6101526102af366004610fa1565b610b58565b7f00000000000000000000000000000000000000000000000000000000000000004210156102fd5760405162461bcd60e51b81526004016102f490610fcb565b60405180910390fd5b60015460ff1661034f5760405162461bcd60e51b815260206004820152601960248201527f4576656e74206973206e6f74207265736f6c766564207965740000000000000060448201526064016102f4565b335f908152600460205260409020805461039a5760405162461bcd60e51b815260206004820152600c60248201526b139bc81d985b1a590818995d60a21b60448201526064016102f4565b600180820154905460ff91821691821515610100909204161515146104185760405162461bcd60e51b815260206004820152602e60248201527f496e636f72726563742070726564696374696f6e2e2e426574746572204c756360448201526d6b204e6578742054696d652e2e2160901b60648201526084016102f4565b6001545f90610100900460ff1661043157600354610435565b6002545b90505f60018054906101000a900460ff1661045257600254610456565b6003545b90505f82610464838261100f565b86546104709190611028565b61047a919061103f565b90505f60646005875f015484610490919061105e565b61049a9190611028565b6104a4919061103f565b90505f6104b1828461105e565b335f8181526004602081905260408083209283556001909201805460ff19169055905163a9059cbb60e01b815290810191909152602481018290529091506001600160a01b037f0000000000000000000000000000000000000000000000000000000000000000169063a9059cbb906044016020604051808303815f875af115801561053f573d5f5f3e3d5ffd5b505050506040513d601f19601f820116820180604052508101906105639190611071565b5060405163a9059cbb60e01b81526001600160a01b037f000000000000000000000000000000000000000000000000000000000000000081166004830152602482018490527f0000000000000000000000000000000000000000000000000000000000000000169063a9059cbb906044016020604051808303815f875af11580156105f0573d5f5f3e3d5ffd5b505050506040513d601f19601f820116820180604052508101906106149190611071565b50604080518281526020810184905233917fdacbdde355ba930696a362ea6738feb9f8bd52dfb3d81947558fd3217e23e325910160405180910390a250505050505050565b5f80546106659061108c565b80601f01602080910402602001604051908101604052809291908181526020018280546106919061108c565b80156106dc5780601f106106b3576101008083540402835291602001916106dc565b820191905f5260205f20905b8154815290600101906020018083116106bf57829003601f168201915b505050505081565b7f00000000000000000000000000000000000000000000000000000000000000004210156107245760405162461bcd60e51b81526004016102f490610fcb565b60015460ff16156107705760405162461bcd60e51b8152602060048201526016602482015275115d995b9d08185b1c9958591e481c995cdbdb1d995960521b60448201526064016102f4565b61079d7f00000000000000000000000000000000000000000000000000000000000000006206978061100f565b4210156107ec5760405162461bcd60e51b815260206004820152601960248201527f526566756e6420706572696f64206e6f7420737461727465640000000000000060448201526064016102f4565b335f90815260046020526040902080546108375760405162461bcd60e51b815260206004820152600c60248201526b139bc81d985b1a590818995d60a21b60448201526064016102f4565b8054335f8181526004602081905260408083209283556001909201805460ff19169055905163a9059cbb60e01b815290810191909152602481018290526001600160a01b037f0000000000000000000000000000000000000000000000000000000000000000169063a9059cbb906044016020604051808303815f875af11580156108c4573d5f5f3e3d5ffd5b505050506040513d601f19601f820116820180604052508101906108e89190611071565b5060405181815233907ff247ed1040aa5b17569282cc01923fbdd01401fa63e12930d59be4a5e87aa7d6906020015b60405180910390a25050565b336001600160a01b037f0000000000000000000000000000000000000000000000000000000000000000161461098c5760405162461bcd60e51b815260206004820152600e60248201526d139bdd08185d5d1a1bdc9a5e995960921b60448201526064016102f4565b7f00000000000000000000000000000000000000000000000000000000000000004210156109cc5760405162461bcd60e51b81526004016102f490610fcb565b60015460ff1615610a185760405162461bcd60e51b8152602060048201526016602482015275115d995b9d08185b1c9958591e481c995cdbdb1d995960521b60448201526064016102f4565b600180548215156101000261ffff1990911617811790556040517ff9aba931bd9cd9bc5db0ae6a8d060c3dae36f534995370358dd531cb87497ee590610a6390831515815260200190565b60405180910390a150565b60605f5f5f5f5f5f7f000000000000000000000000000000000000000000000000000000000000000060015f9054906101000a900460ff1660018054906101000a900460ff16600254600354858054610ac69061108c565b80601f0160208091040260200160405190810160405280929190818152602001828054610af29061108c565b8015610b3d5780601f10610b1457610100808354040283529160200191610b3d565b820191905f5260205f20905b815481529060010190602001808311610b2057829003601f168201915b50505050509550955095509550955095509550909192939495565b7f00000000000000000000000000000000000000000000000000000000000000004210610bb85760405162461bcd60e51b815260206004820152600e60248201526d10995d1d1a5b99c818db1bdcd95960921b60448201526064016102f4565b6001600160a01b037f0000000000000000000000000000000000000000000000000000000000000000163303610c255760405162461bcd60e51b81526020600482015260126024820152714f776e65722063616e6e6f74207374616b6560701b60448201526064016102f4565b335f9081526004602052604090205415610c765760405162461bcd60e51b815260206004820152601260248201527110995d08185b1c9958591e481c1b1858d95960721b60448201526064016102f4565b5f8111610cb35760405162461bcd60e51b815260206004820152600b60248201526a16995c9bc8185b5bdd5b9d60aa1b60448201526064016102f4565b604051636eb1769f60e11b815233600482015230602482015281907f00000000000000000000000000000000000000000000000000000000000000006001600160a01b03169063dd62ed3e90604401602060405180830381865afa158015610d1d573d5f5f3e3d5ffd5b505050506040513d601f19601f82011682018060405250810190610d4191906110c4565b1015610d885760405162461bcd60e51b81526020600482015260166024820152755553444320616c6c6f77616e636520746f6f206c6f7760501b60448201526064016102f4565b6040516323b872dd60e01b8152336004820152306024820152604481018290527f00000000000000000000000000000000000000000000000000000000000000006001600160a01b0316906323b872dd906064016020604051808303815f875af1158015610df8573d5f5f3e3d5ffd5b505050506040513d601f19601f82011682018060405250810190610e1c9190611071565b50604080518082018252828152831580156020808401918252335f9081526004909152939093209151825591516001909101805460ff1916911515919091179055610e7d578060025f828254610e72919061100f565b90915550610e949050565b8060035f828254610e8e919061100f565b90915550505b6040805183151581526020810183905233917fe57fa5a543ebcdebf2a7d7102ac913e14454cec006468e43a6916e95bdfcea9e9101610917565b5f81518084528060208401602086015e5f602082860101526020601f19601f83011685010191505092915050565b602081525f610f0e6020830184610ece565b9392505050565b5f60208284031215610f25575f5ffd5b81356001600160a01b0381168114610f0e575f5ffd5b8015158114610f48575f5ffd5b50565b5f60208284031215610f5b575f5ffd5b8135610f0e81610f3b565b60c081525f610f7860c0830189610ece565b60208301979097525093151560408501529115156060840152608083015260a090910152919050565b5f5f60408385031215610fb2575f5ffd5b8235610fbd81610f3b565b946020939093013593505050565b602080825260169082015275115d995b9d081b9bdd081e595d081c995cdbdb1d995960521b604082015260600190565b634e487b7160e01b5f52601160045260245ffd5b8082018082111561102257611022610ffb565b92915050565b808202811582820484141761102257611022610ffb565b5f8261105957634e487b7160e01b5f52601260045260245ffd5b500490565b8181038181111561102257611022610ffb565b5f60208284031215611081575f5ffd5b8151610f0e81610f3b565b600181811c908216806110a057607f821691505b6020821081036110be57634e487b7160e01b5f52602260045260245ffd5b50919050565b5f602082840312156110d4575f5ffd5b505191905056fea26469706673582212205975f5b59f35fd3093ae85193f7b9a298f53220db6a0a85b61cd13971854ec7b64736f6c634300081c0033a264697066735822122059b1d46dd5647d1d9ec0009998ea0d18f9444f7c46e26caa975ad28e1e58ab8464736f6c634300081c0033","linkReferences":{}},"methodIdentifiers":{"createEvent(string,uint256)":"9a4d4385","createdEvents(uint256)":"3fb2ead3","feeAddress()":"41275358","getDeployedEvents()":"3812783e","owner()":"8da5cb5b","updateFeeAddress(address)":"bbcaac38","usdc()":"3e413bee"},"id":22}